:100000000C94BF010C94F0010C94F0010C94F001DD
:100010000C94F0010C94F0010C94F0010C94F0019C
:100020000C94F0010C94F0010C94F0010C94F0018C
:100030000C94F0010C94F0010C94F0010C94F0017C
:100040000C94F0010C94B80C0C94F0010C94F00199
:100050000C94F0010C94F0010C94F0010C9409172D
:100060000C94F0010C94960F0C9486100C94F001F3
:100070000C94F0010C94F0010C94F0010C94F0013C
:100080000C94E60C0C94F0010C94F0010C94F0012B
:100090000C94CA0F0C94C5100C94F0010C94F00150
:1000A0000C94F0010C94F0010C94140D0C94F001DC
:1000B0000C94F0010C94F0010C94F0010C94420D9E
:1000C0000C94F0010C94F0010C94F0010C94FE0FD0
:1000D0000C9404110C94F0010C9432100C94431104
:1000E0000C94F001B713BA13AD13B113F113BE138F
:1000F000C213C813CC13D013D613DA13DE13F113C3
:10010000E413E813EC13731678167D1687160017A0
:1001100091169916A116AB16B516BF16CE16D8169F
:100120000017E216EC16F6160000090A02080B0C7E
:100130000D0706030401000000000000000000009D
:1001400000000000000000000000000000000000AF
:100150000000000011100F0000000000000000006F
:10016000000000000000000000000000000001028C
:1001700010202008081020401020408002010201B9
:100180000804020101020408102040808040201071
:1001900008040201800402018040201008040201CA
:1001A0000804020101020408102040800102040832
:1001B000102040800505050507050808080802020B
:1001C00002020A0A080804040404010101010101F1
:1001D00001010303030303030303040707070C0CD4
:1001E0000C0C0C0C0C0C020202020606060606069B
:1001F00006060B0B0B0B0B0B0B0B00002200250054
:1002000028002B002E0031003400020100000501FF
:1002100008010B0100002100240027002A002D0006
:100220003000330001010000040107010A010C94B1
:10023000E8130C94F1130C94340F0C94E4130C9405
:100240002F060C94A9030C941B050C94D5030C9455
:10025000AD130C94120F0C9470030C94C7030C9400
:10026000CA030C94AC030C94D0130C94F70E0C94AA
:10027000DD060C94C0030C9403120C9460020C94E1
:10028000EC130C94D0080C9400170C9426030C94D7
:10029000A1160C94BF160C94F2010C94B5160C9494
:1002A000BE130C94C2130C94E30B0C9464140C94C2
:1002B0005D020C9479030C94DA130C94BA130C9429
:1002C000C8130C9479040C949C060C9491160C940D
:1002D000B1130C9429030C94E2160C94D7060C94D9
:1002E000DE130C94D8160C94B7130C9473160C945C
:1002F000F6160C9409080C947F040C9490030C944B
:1003000067090C94EC160C9487160C9439130C9412
:10031000D6130C945A020C9499160C942C030C943A
:100320007D160C94E50E0C9478160C94C4030C9472
:100330006D090C947C030C940B0C0C943F0F0C94E3
:1003400031140C943F130C9414020C94CF030C94AE
:1003500066020C9473030C9476030C94A6030C941D
:1003600065100C94CE160C944D040C94DE070C947E
:10037000420B0C94CC130C94AB16420B03121124B9
:100380001FBECFEFD1E2DEBFCDBF00E00CBF13E058
:10039000A0E0B2E0ECE0F2E300E00BBF02C00790A7
:1003A0000D92A63DB107D9F71BE0A6EDB3E001C061
:1003B0001D92AE3EB107E1F713E0CEE7D3E000E0D7
:1003C00006C022970109FE010BBF0E94E818CA3738
:1003D000D10780E00807A9F70E94D80E0C940419F1
:1003E0000C940000FC01DB0182818C9383811196C7
:1003F0008C931197848112968C9312978581139612
:100400008C931397868114968C93149787811596F5
:100410008C931597808516968C93169781851796E1
:100420008C9388E090E00895FC01DB014C9150E052
:1004300060E070E0428353836483758311968C91EE
:100440001197582B428353836483758312968C9142
:100450001297682B428353836483758313968C9120
:100460001397782B428353836483758314964C913E
:10047000149750E060E070E046835783608771878F
:1004800015968C911597582B4683578360877187F3
:1004900016968C911697682B4683578360877187D1
:1004A00017968C91782B468357836087718788E0F5
:1004B00090E0089586E192E0089584E292E0089544
:1004C000A0E0B0E0E6E6F2E00C949018FC01DB015D
:1004D0008C9190E09383828311962C911197922BAB
:1004E0009383828312964D915D916D917C911597C6
:1004F0005D0186E0A80EB11C8A019B010A5F1F4FB7
:100500002F4F3F4F6501CA1ADB0AE12CF12CC016B0
:10051000D106E206F30640F4E501F9905E01CE0152
:100520000297EC01F882EECFED01C40FD51F1D82BA
:10053000CD01059695838483ED01C40FD51FCE8030
:10054000DF80E884F984465F5F4F3D01640E751ECD
:100550008A01222717FD2095322F0C0D1D1D2E1DFF
:100560003F1D43018A1A9B0AA12CB12C80169106CB
:10057000A206B30640F4E30169913E01CE01029761
:10058000EC016883EECFC40ED51E9D012C0D3D1DE0
:10059000C9010197EC011882415051094A0F5B1FB4
:1005A00057834683E901088119812A813B81D4E080
:1005B000CD0ED11C3D016C0C7D1CA601662757FD9C
:1005C0006095762F400F511F621F731F43018A1AD7
:1005D0009B0AA12CB12C84169506A606B70640F4FA
:1005E000E301F9903E01CE010297EC01F882EECFD3
:1005F0000C0D1D1D9D01200F311FC9010197EC013C
:100600001882D1E0CD1AD108CA0EDB1ED186C08671
:10061000D90111968C91119712964C91129750E036
:1006200060E070E0BA0155274427582B8C91482B85
:1006300013968C91782B4287538764877587C801FE
:100640000496CDB7DEB7EEE00C94AC1885E492E0EA
:1006500008958EE592E00895AF92BF92CF92DF9217
:10066000EF92FF921F93CF93DF939C01FB01808158
:10067000D90112968C9381819281A381B4815B010F
:10068000C5E0AC0EB11CAC01BD014B5F5F4F6F4FBD
:100690007F4F6501CE1ADF0AE12CF12CC416D50676
:1006A000E606F70650F4E501D9905E017E01D2E03E
:1006B000ED1AF108E701D882ECCFEF01C80FD91F7E
:1006C0001C823496E901FC83EB830596DF91CF9180
:1006D0001F91FF90EF90DF90CF90BF90AF90089563
:1006E0008FE792E0089582E992E0089587E593E02C
:1006F000089583EB92E00895FB01DC0112964C9182
:10070000129713963C91139714962C911497159663
:100710008C91408331832283838384E090E0089529
:10072000FB012181428150E060E070E0BA01552771
:100730004427522B2081422B2381722BFC014283C0
:1007400053836483758384E090E0089584ED92E0A0
:10075000089585EE92E008950F931F93CF93DF9352
:10076000EC018C010A5F1F4FC8010E949003EC85C9
:10077000FD85C8011995DF91CF911F910F910895C3
:10078000FC0186859785089584ED92E0089585EEB5
:1007900092E008958E579B4FFC0180810895A0E060
:1007A000B0E0E5EDF3E00C949418EC017B018A8154
:1007B000DB018C938B8111968C93EC81FD81DF01A1
:1007C0000D900020E9F7CD0101976C01CE1ADF0AE8
:1007D000C601A0E0B0E0FB0182839383A483B583CC
:1007E0006C817D81A601C70106960E94FB18EE81EF
:1007F000FF81DF010D900020E9F7CD0101975C0139
:10080000AE1ABF0AF701EC0DFD1D850120E030E0B6
:1008100006831783208731879AE0C90ED11C6E8129
:100820007F81A501C7018C0D9D1D0E94FB18CA0C7C
:10083000DB1CE885F985DF010D900020E9F7CD018B
:1008400001975C01AE1ABF0AF701EC0DFD1D850191
:1008500020E030E0008311832283338394E0C90ECB
:10086000D11C68857985A501C7018C0D9D1D0E944D
:10087000FB18AC0CBD1C3A852B859C858D85F7013A
:10088000EA0DFB1D3083218392838383C501049687
:10089000CDB7DEB7EAE00C94B0180F931F93CF9357
:1008A000DF93DC01FB0112968C91129780831396E3
:1008B0008D919C911497EC0109900020E9F7219704
:1008C000C81BD90B8E0120E030E001831283238303
:1008D000348313966D917C911497AE01CF010596E8
:1008E0000E94FB18CE010596DF91CF911F910F91C9
:1008F0000895A0E0B0E0EFE7F4E00C949518EC0167
:100900007B018A81DB018C9311961C9211971296C0
:100910001C92129713961C92FB01379640E024E03C
:1009200030E05A81C90104964517F0F4AF81B885CB
:1009300024E0429FA00DB11D11246C9111965C9191
:10094000119712963C91129713962C91DF011397F1
:100950006C93DF0112975C93DF0111973C93208326
:100960009C014F5F3496DDCF4985F701E20FF31FFD
:10097000408311821282138220E03985F701E80F4B
:10098000F91F04962317B0F4AE85BF8534E0239F8A
:10099000A00DB11D11246C9111965C9111971296C6
:1009A0004C91129713963C91608351834283338319
:1009B0002F5FE3CF28892083118212821382B12C0A
:1009C0002889B21698F54B2D50E0440F551FEB893E
:1009D000FC89E40FF51F0190F081E02DDF010D90FF
:1009E0000020E9F79D01215031096901CE1ADF0A83
:1009F000F701E80FF91F860120E030E00083118342
:100A0000228333838C010C5F1F4FEB89FC89E40F39
:100A1000F51F60817181A601C701800F911F0E949F
:100A2000FB18C601800F911FB394CACFCDB7DEB7B4
:100A3000E9E00C94B1184F925F927F928F929F924F
:100A4000AF92BF92CF92DF92EF92FF920F931F93DC
:100A5000CF93DF93EC018B01DB01FC908A818F1532
:100A600050F4B4E0FB9EB00111248F8198850E9460
:100A70005E1498878F83FA82F8013796F12C44E050
:100A800050E09E012D5F3F4F8A81BA016C5F7F4F1E
:100A90006B01F81670F5408150E060E070E0742F53
:100AA000662755274427DF0113978C91482BDF01D8
:100AB00012978C91582BDF0111978C91682B4B83E7
:100AC0005C836D837E83A6016F81788584E0F89EC8
:100AD000600D711D1124D9018D909D90AD90BC9039
:100AE000DB018D929D92AD92BC921397F394349654
:100AF000CBCFF801E40FF51FF08089858F1550F4F6
:100B000084E0F89EB00111248E859F850E945E14BA
:100B10009F878E879601F98680E0FE013A96998537
:100B2000D801A20FB31FA9014C5F5F4F6A0189175B
:100B300048F511969C91119712964C91129750E09E
:100B400060E070E0BA0155274427592B9C91492B4E
:100B500013969C91792B4A875B876C877D879601DA
:100B6000AE85BF8594E0899FA00DB11D1124408101
:100B70005181628173814D935D936D937C93139743
:100B80008F5FCDCFFC9088898F1550F46F2D70E06A
:100B9000660F771F8B899C890E945E149C8B8B8BC0
:100BA000C601F88A712C2E0151E1450E511C28898D
:100BB000721608F044C0F801E80FF91FC080D18018
:100BC000E280F3800496F801E80FF91FAC01662774
:100BD00057FD6095762F4C0D5D1D6E1D7F1D9F018D
:100BE000201B310B4901A12CB12C84169506A606B9
:100BF000B70638F4B1909F0122503109D901BC9257
:100C0000EECFC80ED91EF801EC0DFD1D31971082F4
:100C10009C0121503109200F311F3A8B298BC601CD
:100C20003B892C89E32FF22FE70DF11DE70DF11D14
:100C3000D2012D913C91318320837394B8CFDF9101
:100C4000CF911F910F91FF90EF90DF90CF90BF90C9
:100C5000AF909F908F907F905F904F900895AF924C
:100C6000BF92CF92DF92EF92FF920F931F93FC01FE
:100C700062817381848195810E94C1177093A0085D
:100C800060939F08A0900602B0900702CC24B7FCA6
:100C9000C094DC2C882777FD8095982F2091040242
:100CA000309105028901222717FD2095322F3F93AD
:100CB0002F931F930F9314E6E12EF12C00E010E028
:100CC00020E030E0A9010E945B13E0900802F09060
:100CD00009020027F7FC0095102F20910A0230919D
:100CE0000B02442737FD4095542F882777FD8095C8
:100CF000982F1F921F921F92EFEFEF93A12CB12C10
:100D000065010E945B1370939E0860939D0880911B
:100D10000E020E944F168DB79EB708960FB6F89434
:100D20009EBF0FBE8DBF1F910F91FF90EF90DF9080
:100D3000CF90BF90AF900895AF92BF92CF92DF92C5
:100D4000EF92FF920F931F93FC0162817381848164
:100D500095810E94C11770939C0860939B08882717
:100D600077FD8095982F1F921F921F9224EB2F934F
:100D7000A12CB12C650117E8E12EF12C00E010E068
:100D800029E73FEF4FEF5FEF0E945B1381EA98E0A6
:100D90000E94720E0F900F900F900F901F910F9165
:100DA000FF90EF90DF90CF90BF90AF900895A5E0B7
:100DB000B0E0EDEDF6E00C9494188C016B01643614
:100DC00071053CF0FC01EE57FB4F8081882309F44C
:100DD00085C0DA01ED91FC910190F081E02DB80120
:100DE000655E7D4FCA0119957C015801BCEEAB1AB6
:100DF000BDEFBB0A2FEFF50120832EEFF801EB5E6C
:100E0000FD4F2083F801EA5EFD4F8083F801E95E23
:100E1000FD4F9083890F8095F801E85EFD4F808338
:100E2000F801E75EFD4FC082F801E65EFD4FD0821B
:100E300085E090E020E030E0A701495F5F4F841734
:100E4000950750F4F801E80FF91FEC5EFD4F608143
:100E5000260F311D0196F3CFF8E0EF0EF11C400F85
:100E6000511FFA01EC5EFD4F2095208321E0E21630
:100E700022E0F206C8F46501C6018A199B098E15A5
:100E80009F0584F4D80112968D919C911397F601D9
:100E900061916F01DC01ED91FC910190F081E02DF9
:100EA0001995EACFC7011CC08FE893E09A83898324
:100EB00083E08B8386E093E09D838C83D801ED9162
:100EC000FC910190F081E02DAE014F5F5F4F67E034
:100ED00070E0C80119958FEF9FEF02C080E090E0AD
:100EE0002596EAE00C94B0184091FA035091FB0368
:100EF0006091FC037091FD038091F8039091F903D8
:100F00000E94821110926F0810926E081092710860
:100F1000109270081092750810927408109273085D
:100F200010927208ECE3F8E080E090E021913191BA
:100F3000232B81F4FC01EE0FFF1FE45CF74F26EE3C
:100F400033E0318320838C599F4F9093E903809342
:100F5000E80304C001968931910541F7ECE3F8E01C
:100F600080E090E021913191232B81F4FC01EE0F80
:100F7000FF1FE45CF74F26ED33E0318320838C596B
:100F80009F4F9093D9038093D80304C00196893171
:100F9000910541F761E080910E020E94F213609189
:100FA0000C0270910D0281EA98E00E94380E0895BB
:100FB000AAE0B0E0EEEDF7E00C949A188C0187E718
:100FC00093E09A8389831B821C821D821E821F826A
:100FD000188619861A86D801ED91FC910190F0814E
:100FE000E02DAE014F5F5F4F6AE070E0C8011995D8
:100FF0000E945317F80160877187828793872A962A
:10100000E4E00C94B618AEE0B0E0E9E0F8E00C944F
:101010008E188C0183E893E09A8389831C821B825B
:101020008EE393E09E838D8398878F839A87898749
:101030001B861C861D861E86580182E3A80EB11CE5
:101040007801412C62E0562E612C712C6701ACEEC8
:10105000CA1AABEFDA0AD601ED91FC913097B9F1DB
:10106000848195819C838B83808191819E838D83F4
:1010700082819381DC01ED91FC910480F581E02D6A
:10108000199598878F83D601ED91FC918281938188
:10109000DC01ED91FC910680F781E02D19959A878E
:1010A00089874B865C866D867E86F801808191817A
:1010B000F601A081B18118966D917C911997DC01A0
:1010C000ED91FC91AE014F5F5F4FC8011995B2E001
:1010D000EB0EF11CEA14FB0409F0B8CF7801412CA7
:1010E00052E0552E612C712C6701EAEBCE1AEBEF22
:1010F000DE0AF601A081B1811097E1F112968D917F
:101100009C9113979C838B8314968D919C9115973A
:101110009E838D83ED91FC9111970480F581E02DE4
:10112000CD01199598878F83D6018D919C91DC0113
:10113000ED91FC910680F781E02D19959A878987BA
:101140004B865C866D867E86D801ED91FC91808011
:101150009180F60180819181DC01ED91FC9102800A
:10116000F381E02D1995AE014F5F5F4FBC01C801BF
:10117000F4011995F2E0EF0EF11CEA14FB0409F0FA
:10118000B3CFF801EE57FB4F81E080832E96E0E16C
:101190000C94AA18AAE0B0E0E0EDF8E00C949218E4
:1011A0008C015B0187E793E09A8389831B821C8211
:1011B0001D821E821F82188619861A860E94531766
:1011C0006B017C01F80180859185A285B385C81AE1
:1011D000D90AEA0AFB0AB501CE0101960E9414025F
:1011E00078EE872E73E0972EA12CB12CC701B601A3
:1011F000A50194010E944B1869017A019B01AC0181
:101200008B819C81AD81BE818C0D9D1DAE1DBF1D4E
:101210008B839C83AD83BE8360E472E48FE090E0B7
:101220000E941B18CF80D884E984FA84C60ED71E8A
:10123000E81EF91ECF82D886E986FA860E945317E7
:10124000CB80DC80ED80FE80F1E0CF1AD108E10890
:10125000F108A50194010E944B1849015A019B0114
:10126000AC01C818D908EA08FB08F801C486D5867D
:10127000E686F786CF80D884E984FA84F6E3DF1A1D
:10128000F5E6EF0AF4ECFF0A60E472E48FE090E028
:101290000E941B18C61AD70AE80AF90AF801C08A80
:1012A000D18AE28AF38AB801605F7F4FC8010C9649
:1012B0000E94DD0B0E945317F801E957FB4F608332
:1012C0007183828393832A96ECE00C94AE18A0E19C
:1012D000B0E0EDE6F9E00C948C184C010E94531735
:1012E0006B017C01940129573B4F3E832D83F9010B
:1012F00080819181A281B381A7019601281B390BBE
:101300004A0B5B0BDA01C901893F9A42A105B1057D
:1013100020F0F401EE57FB4F1082A40148585B4FB8
:10132000588B4F87DA018D919C91892B79F0F401CC
:10133000E557FB4F80819181A281B3818C159D057A
:10134000AE05BF0518F4FA01118210823401F0E8ED
:101350006F1AFBEF7F0A940124583B4F3A8329838D
:10136000A4014E575B4F58874F83940120573B4F42
:101370003C872B87A40141575B4F5E874D878401D3
:1013800006581B4F1601270154E1250E311C411C44
:10139000511C540184E1A80EB11C940122583B4F0A
:1013A0003C832B83A40145575B4F5A874987D4015F
:1013B00012968D919C911397DC01ED91FC91068022
:1013C000F781E02D19959C0197FD2DC1F3018081D6
:1013D0009181820F931F91838083AF85B8894D914E
:1013E0005C9147305105E1F4EB81FC818081918172
:1013F000AC014F5F5F4F51834083F401E80FF91F49
:10140000248BD8018D919C91119701978D939C937A
:10141000892B09F0BECF28E030E0EF85F88987C03E
:101420004115510519F52F3F310569F481E090E030
:10143000AF85B8898D939C93E985FA8520823182A6
:1014400042825382B4CF0E9453176C197D098E09D2
:101450009F09663071058105910508F49ACFF40162
:10146000EE57FB4F10828EEF9FEF03C141305105C5
:1014700099F42E3F310519F482E090E02FC0EF85FA
:10148000F88911821082AF81B8858C91811181CF4A
:10149000C4010E94D8078BCF4230510589F4F8016E
:1014A00031832083AB81BC811D921C9283E090E04C
:1014B000EF85F88991838083D3012D933C9377CF77
:1014C0004330510581F4322F2227F8018081918128
:1014D000820F931F9183808384E090E0AF85B88969
:1014E0008D939C9364CF4430510599F460E071E092
:1014F0000E9437188F3F910539F485E090E0EF8521
:10150000F8899183808353CFAF85B8891D921C924F
:101510004ECF4530510571F4E981FA813183208342
:1015200086E090E0AF85B8898D939C93F301318379
:1015300020833DCF46305105D1F4322F2227A98197
:10154000BA818D919C911197820F931F8D939C93DB
:1015500027E030E0EF85F88931832083D8018D9131
:101560009C91892B09F015CF28E030E0E0CF48307E
:10157000510509F00ECFAF85B8891D921C9260E02D
:1015800071E00E9437188F3F910509F002CFA981C1
:10159000BA81ED91FC913097B1F4C4010E94D80753
:1015A000C4010E940308F401ED57FB4FC082D182B1
:1015B000E282F382ED81FE81C082D182E282F382F7
:1015C0008FEF9FEF56C0EA30F10529F4B501C40151
:1015D0000E94CA08ECCEE630F10551F4B5018B85C6
:1015E0009C850E941B0581E0AD85BE858C93DFCE76
:1015F000EB30F10521F4EF81F8851082D8CEE1546B
:10160000FE4FEE0FFF1FE80DF91D808191810097BD
:1016100009F4BFCEDC01ED91FC910190F081E02D49
:10162000B5011995C4CEF401EE57FB4F8081882394
:10163000F1F084010D571B4FF80180819181A28147
:10164000B381A7019601281B390B4A0B5B0BDA010A
:10165000C901853C9940A105B10548F0C4010E942B
:10166000D807D801CD92DD92ED92FC92139780E0DD
:1016700090E06096E2E10C94A81886EF93E00E9457
:101680006709089581EA98E00E94700D83EB93E06A
:101690009093F7038093F6038FE999E09093F90311
:1016A0008093F80380E091EEA0E0B0E08093FA032D
:1016B0009093FB03A093FC03B093FD031092780872
:1016C0008BE993E0909387088093860810928808AE
:1016D00010928E0810928D0810928F081092950823
:1016E000109294081092960810929A0810929908F5
:1016F000EAE0F8E01192119288E0EC33F807D1F7B4
:10170000ECE3F8E01192119288E0EE36F807D1F799
:10171000EAE0F4E0119286E0EA30F807D9F7EAE06F
:10172000F6E0119288E0EA30F807D9F74DEB53E084
:101730005093E7034093E60327EA33E03093ED0349
:101740002093EC031092EE031092EF031092F0033B
:101750001092F1038FE296E09093F3038093F203EB
:1017600081E090E09093F5038093F4036FE373E0DE
:101770007093EB036093EA035093D7034093D6032F
:101780003093DD032093DC031092DE031092DF031D
:101790001092E0031092E1032CE936E03093E3036A
:1017A0002093E2039093E5038093E40388E493E0BD
:1017B0009093DB038093DA030895A0E0B0E0E3EEBA
:1017C000FBE00C9496188C01EB01688179818A8189
:1017D0009B8120E03AEC4AE95BE30E944B18F80158
:1017E000C080D180E280F380C20ED31EE41EF51EBD
:1017F000C082D182E282F382688379838A839B8369
:10180000CDB7DEB7E8E00C94B218A0E0B0E0EBE0B2
:10181000FCE00C9496186C018B017A01EC01CB551D
:10182000D74F888187FF04C0FB011182108223C03B
:101830002CE02C9DC0012D9D900D11242881AC0120
:10184000420F511D27FD5A952091A40830E0421700
:1018500053078CF42881AC01420F511D27FD5A9586
:101860009A01FA01EE0FFF1FE20FF31FE755F74F42
:10187000208126FD19C088818F5F88838CE08C9D34
:1018800090018D9D300D11248881A901480F511DB3
:1018900087FD5A958091A40890E048175907B4F441
:1018A00088818C303CF112C02881820F911D27FD68
:1018B0009A95FC01EE0FFF1FE80FF91FE755F74F50
:1018C000808160E08F730E942B14D5CFF801808156
:1018D0009181049680349C4918F480E49CE904C00A
:1018E000F801808191810496F701918380838FEFC5
:1018F000888339C0F801808191814881B901640FE2
:10190000711D47FD7A95AB01FB01EE0FFF1FE40F40
:10191000F51FE755F74F41815281840F951FF7015D
:10192000918380838881A901480F511D87FD5A95B5
:10193000FA01EE0FFF1FE40FF51FE755F74F808107
:1019400086FF11C08881280F311D87FD3A95F90166
:10195000EE0FFF1FE20FF31FE755F74F808161E0A5
:101960008F730E942B14CDB7DEB7E8E00C94B21849
:101970001F920F920FB60F9211240BB60F922F9356
:101980003F934F935F936F937F938F939F93AF9307
:10199000BF93EF93FF9348E850E064E870E081E084
:1019A00090E00E94050CFF91EF91BF91AF919F9144
:1019B0008F917F916F915F914F913F912F910F90F8
:1019C0000BBE0F900FBE0F901F9018951F920F9295
:1019D0000FB60F9211240BB60F922F933F934F9394
:1019E0005F936F937F938F939F93AF93BF93EF9387
:1019F000FF9348E950E064E970E082E090E00E94E3
:101A0000050CFF91EF91BF91AF919F918F917F91C5
:101A10006F915F914F913F912F910F900BBE0F905F
:101A20000FBE0F901F9018951F920F920FB60F9236
:101A300011240BB60F922F933F934F935F936F93A5
:101A40007F938F939F93AF93BF93EF93FF9348EA56
:101A500050E064EA70E083E090E00E94050CFF91A2
:101A6000EF91BF91AF919F918F917F916F915F9116
:101A70004F913F912F910F900BBE0F900FBE0F9083
:101A80001F9018951F920F920FB60F9211240BB64C
:101A90000F922F933F934F935F936F937F938F9307
:101AA0009F93AF93BF93EF93FF9348E251E064E2BB
:101AB00071E080E090E00E94050CFF91EF91BF91F2
:101AC000AF919F918F917F916F915F914F913F91D6
:101AD0002F910F900BBE0F900FBE0F901F90189577
:101AE0002091A4082033A0F431E0320F3093A408F1
:101AF000FC012083822F90E0FC01EE0FFF1FE80F16
:101B0000F91FE755F74F88EB9BE092838183089597
:101B10002FEFFC0120830895DF92EF92FF920F9345
:101B20001F93CF93DF93EC01D62E7A018901888130
:101B3000803308F068C061E08D2D0E94F213888127
:101B4000A82FB0E0FD01EE0FFF1FEA0FFB1FE755C6
:101B5000F74F2D2D2F739081907C922B908360E214
:101B600072E06E197F0977FF02C06D5F7F4F759538
:101B7000679575956795698340E659E0401B510B61
:101B800057FF02C04D5F5F4F559547955595479557
:101B90004A836CE00E942B189CE0899FB0011124BD
:101BA00020E030E0A901460F571FFA01EE0FFF1F9A
:101BB000E40FF51FE755F74F908196FD18C02F5F92
:101BC0003F4F2C30310571F790E08130910509F5D8
:101BD0001092800082E08093810010928500109224
:101BE0008400B19A80916F00826080936F00888139
:101BF00090E0FC01EE0FFF1FE80FF91FE755F74FCC
:101C00008081806480838881CDB7DEB7E7E00C9463
:101C1000B3188230910569F41092900082E08093AD
:101C20009100109295001092940088BB80937100EF
:101C3000DECF8330910569F41092A00082E080939A
:101C4000A1001092A5001092A40089BB809372009D
:101C5000CECF892B61F61092200182E08093210182
:101C600010922501109224018ABB80937300BFCF8C
:101C700020E639E040E252E00E948C0D0895FC011C
:101C80008081803370F5918128E830E0291B31098B
:101C900097FD3395220F331F220F331F62177307EF
:101CA0007CF0928128E532E0291B310997FD3395BC
:101CB000220F331F220F331F621773070CF49B018F
:101CC0004FB7F89490E0FC01EE0FFF1FE80FF91FEB
:101CD000E755F74F22503109220F331F32832183FA
:101CE0004FBF08954F925F926F927F92AF92BF92D3
:101CF000CF92DF92EF92FF920F931F93CF93DF93D8
:101D0000EC01603282E078070CF040C077FD06C03D
:101D1000653B71052CF064EB70E002C060E070E0A0
:101D2000898128E830E0281B310987FD3395220F8F
:101D3000331F220F331F5901CC24B7FCC094DC2C75
:101D4000882777FD8095982F2A8148E552E0421B2D
:101D5000510927FD5395440F551F440F551F2A0164
:101D6000662457FC6094762C7F926F925F924F921C
:101D700014EBE12EF12C00E010E020E030E0A901AE
:101D80000E945B130F900F900F900F90CE010E9456
:101D90003F0EDF91CF911F910F91FF90EF90DF9059
:101DA000CF90BF90AF907F906F905F904F900895CD
:101DB0000E945F170E947407C5E6D0E10E943D0BA8
:101DC0002097E1F30E946510F9CFFC012485358549
:101DD000F901E05CFF4F80819181F901EE5BFF4FDB
:101DE00020813181821B930B8F7399270895FC0109
:101DF00084859585FC01E05CFF4F40815181FC01A9
:101E0000EE5BFF4F208131814217530741F0019073
:101E1000F081E02DE80FF91F808190E008958FEFA9
:101E20009FEF0895FC0184859585FC01E05CFF4FE0
:101E300040815181FC01EE5BFF4F208131814217CF
:101E4000530779F0A081B181A80FB91F8C9120812F
:101E500031812F5F3F4F2F7333273183208390E0F1
:101E600008958FEF9FEF0895FC0181A1882329F049
:101E7000A489B5898C9186FFFBCF11A20895CF93D9
:101E8000DF93FC0126853785D901A05CBF4F8D917A
:101E90009C91119701968F739927E901CE5BDF4FD3
:101EA0004881598184179507D9F30D90BC91A02DD5
:101EB000A20FB31F6C93A685B785A05CBF4F119688
:101EC0009C938E93A689B7892C9181E090E0078C32
:101ED00002C0880F991F0A94E2F7282B2C9381E007
:101EE00081A30488F589E02D80818064808381E06E
:101EF00090E0DF91CF910895FB01E05CFF4F2081DE
:101F000031812F5F3F4F2F733327DB01AE5BBF4F14
:101F10004D915C912417350739F0A081B181A60F4E
:101F2000B71F8C9331832083089508951F920F92D9
:101F30000FB60F9211240BB60F922F933F934F932E
:101F40005F936F937F938F939F93AF93BF93EF9321
:101F5000FF938091C00082FD07C08091C6006DE9AB
:101F60007BE00E947C0F02C08091C600FF91EF9140
:101F7000BF91AF919F918F917F916F915F914F91A1
:101F80003F912F910F900BBE0F900FBE0F901F909F
:101F9000189508951F920F920FB60F9211240BB649
:101FA0000F922F933F934F935F936F937F938F93F2
:101FB0009F93AF93BF93EF93FF938091C80082FDEF
:101FC00007C08091CE0065E17BE00E947C0F02C0DB
:101FD0008091CE00FF91EF91BF91AF919F918F9132
:101FE0007F916F915F914F913F912F910F900BBE19
:101FF0000F900FBE0F901F90189508951F920F928B
:102000000FB60F9211240BB60F922F933F934F935D
:102010005F936F937F938F939F93AF93BF93EF9350
:10202000FF938091D00082FD07C08091D6006DE8BB
:102030007AE00E947C0F02C08091D600FF91EF9160
:10204000BF91AF919F918F917F916F915F914F91D0
:102050003F912F910F900BBE0F900FBE0F901F90CE
:10206000189508951F920F920FB60F9211240BB678
:102070000F922F933F934F935F936F937F938F9321
:102080009F93AF93BF93EF93FF938091300182FDB5
:1020900007C08091360165E07AE00E947C0F02C0A3
:1020A00080913601FF91EF91BF91AF919F918F91F8
:1020B0007F916F915F914F913F912F910F900BBE48
:1020C0000F900FBE0F901F9018958FE999E00E9416
:1020D000E50E892B11F00E94950F8DE799E00E9483
:1020E000E50E892B11F00E94C90F8BE599E00E9443
:1020F000E50E892B11F00E94FD0F89E399E00E9403
:10210000E50E892B11F00E94311008951F920F9255
:102110000FB60F9211240BB60F922F933F938F930C
:102120009F93EF93FF932091990B30919A0B80919D
:102130009B0B90919C0B2817390731F48091C100BB
:102140008F7D8093C10014C0E0919B0BF0919C0B9C
:10215000E75AF44F208180919B0B90919C0B019644
:102160008F73992790939C0B80939B0B2093C600B1
:10217000FF91EF919F918F913F912F910F900BBE07
:102180000F900FBE0F901F9018951F920F920FB6D1
:102190000F9211240BB60F922F933F938F939F931F
:1021A000EF93FF932091110B3091120B8091130B41
:1021B0009091140B2817390731F48091C9008F7D55
:1021C0008093C90014C0E091130BF091140BEF52EF
:1021D000F54F20818091130B9091140B01968F7312
:1021E00099279093140B8093130B2093CE00FF91AB
:1021F000EF919F918F913F912F910F900BBE0F9078
:102200000FBE0F901F9018951F920F920FB60F924E
:1022100011240BB60F922F933F938F939F93EF93BD
:10222000FF932091890A30918A0A80918B0A9091BC
:102230008C0A2817390731F48091D1008F7D809363
:10224000D10014C0E0918B0AF0918C0AE75BF54F46
:10225000208180918B0A90918C0A01968F73992727
:1022600090938C0A80938B0A2093D600FF91EF9174
:102270009F918F913F912F910F900BBE0F900FBEAA
:102280000F901F9018951F920F920FB60F92112466
:102290000BB60F922F933F938F939F93EF93FF93E0
:1022A0002091010A3091020A8091030A9091040A58
:1022B0002817390731F4809131018F7D80933101E6
:1022C00014C0E091030AF091040AEF53F64F208105
:1022D0008091030A9091040A01968F739927909335
:1022E000040A8093030A20933601FF91EF919F9196
:1022F0008F913F912F910F900BBE0F900FBE0F90BB
:102300001F901895CF92DF92EF92FF92CF93DF93B9
:10231000EC016A017B01411581EE580761057105E9
:10232000F9F0EC89FD8981E090E008A002C0880FF7
:10233000991F0A94E2F7808360E079E08DE390E0F2
:10234000A70196010E944B182150310941095109FA
:102350005695479537952795211580E1380798F0D0
:10236000EC89FD89108260E874E88EE190E0A701B5
:1023700096010E944B182150310941095109569587
:10238000479537952795E889F9893083EA89FB894C
:10239000208319A2EE89FF89408181E090E09C01B1
:1023A0000C8C02C0220F331F0A94E2F7422B4083A9
:1023B000EE89FF8940819C010D8C02C0220F331FE2
:1023C0000A94E2F7422B4083EE89FF8940819C0109
:1023D0000E8C02C0220F331F0A94E2F7422B408377
:1023E000EE89FF8920810F8C02C0880F991F0A9403
:1023F000E2F7809582238083DF91CF91FF90EF9069
:10240000DF90CF900895CF931092A2091092A10966
:1024100088EE93E0A0E0B0E08093A3099093A40934
:10242000A093A509B093A60929EC33E03093A00945
:1024300020939F094DE95BE05093AC094093AB09B1
:1024400049E55BE05093AE094093AD0945EC50E09F
:102450005093B0094093AF0944EC50E05093B20957
:102460004093B10940EC50E05093B4094093B30954
:1024700041EC50E05093B6094093B50942EC50E06E
:102480005093B8094093B70946EC50E05093BA090D
:102490004093B909C4E0C093BB09F3E0F093BC09D1
:1024A000E7E0E093BD0975E07093BE0961E06093D9
:1024B000BF091092800910927F098093810990933F
:1024C0008209A0938309B093840930937E092093F5
:1024D0007D0945E15BE050938A094093890941ED0C
:1024E0005AE050938C0940938B094DEC50E0509387
:1024F0008E0940938D094CEC50E050939009409325
:102500008F0948EC50E0509392094093910949ECAF
:1025100050E050939409409393094AEC50E0509353
:102520009609409395094EEC50E0509398094093DA
:102530009709C0939909F0939A09E0939B097093C6
:102540009C0960939D0910925E0910925D09809329
:102550005F0990936009A0936109B0936209309379
:102560005C0920935B094DE85AE050936809409359
:10257000670949E45AE050936A094093690945EDB7
:1025800050E050936C0940936B0944ED50E0509338
:102590006E0940936D0940ED50E0509370094093EF
:1025A0006F0941ED50E0509372094093710942ED7B
:1025B00050E0509374094093730946ED50E05093F6
:1025C000760940937509C0937709F0937809E093F1
:1025D000790970937A0960937B0910923C091092F3
:1025E0003B0980933D0990933E09A0933F09B09326
:1025F000400930933A092093390985E09AE0909395
:1026000046098093450981EC99E0909348098093AD
:10261000470985E391E090934A098093490984E34F
:1026200091E090934C0980934B0980E391E0909363
:102630004E0980934D0981E391E090935009809376
:102640004F0982E391E0909352098093510986E308
:1026500091E09093540980935309C0935509F093E6
:102660005609E09357097093580960935909CF911F
:102670000895A0E0B0E0EFE3F3E10C9496186C014C
:102680007A01EB01E60EF71E00E010E0CE15DF0543
:1026900061F06991D601ED91FC910190F081E02DFE
:1026A000C6011995080F191FF1CFC801CDB7DEB7C4
:1026B000E8E00C94B2184F925F926F927F92AF92C3
:1026C000BF92CF92DF92EF92FF920F931F93CF931F
:1026D000DF93CDB7DEB729013A01621B730B840B80
:1026E000950B2A893B894C895D892A193B094C093C
:1026F0005D092A8B3B8B4C8B5D8B9B01AC016A89FE
:102700007B898C899D890E941B18E418F5080609AD
:102710001709A80197010E946D182A0D3B1D4C1D39
:102720005D1DCA01B901DF91CF911F910F91FF90FB
:10273000EF90DF90CF90BF90AF907F906F905F90C1
:102740004F90089590E0FC013197E131F10508F0D8
:1027500048C0EE58FF4F0C94C318809180008F77CB
:1027600003C0809180008F7D80938000089584B5A0
:102770008F7702C084B58F7D84BD08958091B000AD
:102780008F7703C08091B0008F7D8093B000089553
:10279000809190008F7707C0809190008F7D03C05B
:1027A00080919000877F8093900008958091A00091
:1027B0008F7707C08091A0008F7D03C08091A0001B
:1027C000877F8093A0000895809120018F7707C0B4
:1027D000809120018F7D03C080912001877F8093AD
:1027E00020010895CF93DF9390E0FC01E259FE4F62
:1027F0002491FC01EC54FE4F8491882349F190E030
:10280000880F991FFC01EC5EFD4FA591B491865095
:102810009E4FFC01C591D4919FB7611108C0F894F7
:102820008C91209582238C93888182230AC0623008
:1028300051F4F8948C91322F309583238C938881B6
:10284000822B888304C0F8948C91822B8C939FBF39
:10285000DF91CF910895A1E0B0E0E1E3F4E10C94C1
:102860009A18282F30E0F901E85DFE4F8491F901B4
:10287000E259FE4F1491F901EC54FE4F04910023EC
:10288000C9F0882321F069830E94A2136981E02F97
:10289000F0E0EE0FFF1FE650FE4FA591B4919FB7F9
:1028A000F8948C91611103C01095812301C0812B94
:1028B0008C939FBF2196E4E00C94B618A0E0B0E0A2
:1028C000E4E6F4E10C949018EC01CB01209719F4A4
:1028D0000E942815B8C0FE01E60FF71F9E01225086
:1028E0003109E217F30708F4ACC0D9010D911C912E
:1028F000119706171707B8F00530110508F49FC0A7
:10290000A801445051094617570708F498C00250CF
:102910001109061B170B019311936D937C93CF0143
:102920000E94C0158CC05B01A01AB10A4E01800E36
:10293000911EA091EC0BB091ED0B612C712C60E01D
:1029400070E0109709F449C0A815B905C9F5ED90D4
:10295000FC901197670142E0C40ED11CCA14DB043D
:1029600078F147018A189B08640142E0C40ED11C2B
:102970001296BC9012971396AC91B5E0CB16D10489
:1029800040F0B282A38391828082D9018D939C937F
:1029900009C00E5F1F4F0E0D1F1DF901118300832B
:1029A000EB2DFA2F6115710531F0DB011396FC93C5
:1029B000EE93129744C0F093ED0BE093EC0B3FC005
:1029C0006D917C9111976616770608F43B01BD0165
:1029D00012960D90BC91A02DB4CF6091EA0B70912E
:1029E000EB0B68157905E9F468167906D0F4409187
:1029F0001002509111024115510541F44DB75EB7D7
:102A00006091140270911502461B570BE417F507ED
:102A1000C0F4F093EB0BE093EA0BF9019183808310
:102A20000EC00E9428157C01009759F0A801BE0134
:102A30000E94FB18CE010E94C015C70104C0CE0140
:102A400002C080E090E0CDB7DEB7EEE00C94AC18A9
:102A5000CF93DF938230910510F482E090E0E09113
:102A6000EC0BF091ED0B20E030E0A0E0B0E030970F
:102A700039F14081518148175907B8F04817590773
:102A800071F482819381109729F013969C938E9311
:102A900012972CC09093ED0B8093EC0B27C021155F
:102AA000310531F04217530718F0A901DB0101C0CD
:102AB000EF019A01BD01DF010280F381E02DD7CF44
:102AC00021153105F9F0281B390B2430310580F42C
:102AD0008A819B816115710521F0FB0193838283BB
:102AE00004C09093ED0B8093EC0BFE01329644C032
:102AF000FE01E20FF31F8193919322503109398334
:102B000028833AC02091EA0B3091EB0B232B41F440
:102B100020911202309113023093EB0B2093EA0BB9
:102B200020911002309111022115310541F42DB789
:102B30003EB74091140250911502241B350BE091D1
:102B4000EA0BF091EB0BE217F307A0F42E1B3F0BFF
:102B50002817390778F0AC014E5F5F4F241735070F
:102B600048F04E0F5F1F5093EB0B4093EA0B81939D
:102B7000919302C0E0E0F0E0CF01DF91CF910895A2
:102B8000CF93DF93009709F487C0FC01329713823B
:102B90001282C091EC0BD091ED0B209781F4208133
:102BA0003181280F391F8091EA0B9091EB0B82172E
:102BB000930779F5F093EB0BE093EA0B6DC0DE0120
:102BC00020E030E0AE17BF0750F412964D915C91B3
:102BD00013979D014115510509F1DA01F3CFB38334
:102BE000A28340815181840F951F8A179B0771F43E
:102BF0008D919C911197840F951F029691838083EC
:102C000012968D919C9113979383828321153105A0
:102C100029F4F093ED0BE093EC0B3EC0D901139631
:102C2000FC93EE9312974D915D91A40FB51FEA1797
:102C3000FB0779F480819181840F951F0296D90159
:102C400011969C938E938281938113969C938E937D
:102C50001297E0E0F0E08A819B81009719F0FE0175
:102C6000EC01F9CFCE01029628813981820F931FA2
:102C70002091EA0B3091EB0B2817390769F4309754
:102C800029F41092ED0B1092EC0B02C01382128209
:102C9000D093EB0BC093EA0BDF91CF9108951F9374
:102CA000CF93DF93182FEB0161E00E94F21320977E
:102CB00011F460E004C0CF3FD10529F461E0812F19
:102CC0000E942B14A2C0E12FF0E0E85DFE4F44917A
:102CD00050E0FA013197E131F10508F091C0ED576C
:102CE000FF4F0C94C31884B5806884BDC7BD8DC0E8
:102CF00084B5806284BDC8BD88C080918000806832
:102D000080938000D0938900C09388007EC080911A
:102D10008000806280938000D0938B00C0938A00F3
:102D200074C08091B00080688093B000C093B300FD
:102D30006CC08091B00080628093B000C093B400FA
:102D400064C080919000806880939000D093990037
:102D5000C09398005AC08091900080628093900048
:102D6000D0939B00C0939A0050C0809190008860DF
:102D700080939000D0939D00C0939C0046C08091AA
:102D8000A00080688093A0008091A0008F7B80933A
:102D9000A000D093A900C093A80037C08091A000E4
:102DA00080628093A000D093AB00C093AA002DC096
:102DB0008091A00088608093A000D093AD00C09364
:102DC000AC0023C080912001806880932001D093C3
:102DD0002901C093280119C080912001806280934D
:102DE0002001D0932B01C0932A010FC080912001B4
:102DF000886080932001D0932D01C0932C0105C0E1
:102E0000C038D1050CF05ACF54CFDF91CF911F912C
:102E100008951F920F920FB60F9211242F933F9394
:102E20008F939F93AF93BF938091E20B9091E30BAD
:102E3000A091E40BB091E50B3091E10B23E0230F5F
:102E40002D3720F40196A11DB11D05C026E8230FE2
:102E50000296A11DB11D2093E10B8093E20B90938C
:102E6000E30BA093E40BB093E50B8091E60B9091FC
:102E7000E70BA091E80BB091E90B0196A11DB11DE4
:102E80008093E60B9093E70BA093E80BB093E90BCC
:102E9000BF91AF919F918F913F912F910F900FBE56
:102EA0000F901F9018952FB7F8946091E20B7091D6
:102EB000E30B8091E40B9091E50B2FBF089578947C
:102EC00084B5826084BD84B5816084BD85B582602F
:102ED00085BD85B5816085BDEEE6F0E080818160CD
:102EE0008083E1E8F0E010828081826080838081CD
:102EF00081608083E0E8F0E0808181608083E1EBA5
:102F0000F0E0808184608083E0EBF0E0808181608C
:102F10008083E1E9F0E0808182608083808181604C
:102F20008083E0E9F0E0808181608083E1EAF0E085
:102F3000808182608083808181608083E0EAF0E02C
:102F4000808181608083E1E2F1E080818260808322
:102F5000808181608083E0E2F1E080818160808314
:102F6000EAE7F0E0808184608083808182608083F2
:102F70008081816080838081806880831092C1001D
:102F8000089504D06894B11150C0089533D088F0EA
:102F90009F5790F0B92F9927B751A0F0D1F0660F45
:102FA000771F881F991F1AF0BA95C9F712C0B13060
:102FB00081F03AD0B1E0089537C0672F782F882785
:102FC000B85F39F0B93FCCF3869577956795B3959F
:102FD000D9F73EF490958095709561957F4F8F4F0E
:102FE0009F4F089557FD9058440F551F59F05F3F6C
:102FF00071F04795880F97FB991F61F09F3F79F01B
:1030000087950895121613061406551FF2CF46959C
:10301000F1DF08C0161617061806991FF1CF86951E
:103020007105610508940895E894BB276627772702
:10303000CB0197F90895DB018F939F930E94C918E4
:10304000BF91AF91A29F800D911DA39F900DB29F44
:10305000900D11240895991B79E004C0991F9617CB
:1030600008F0961B881F7A95C9F78095089597FBFD
:10307000072E16F4009407D077FD09D00E94D418CB
:1030800007FC05D03EF4909581959F4F089570956B
:1030900061957F4F0895A1E21A2EAA1BBB1BFD016B
:1030A0000DC0AA1FBB1FEE1FFF1FA217B307E40727
:1030B000F50720F0A21BB30BE40BF50B661F771F7F
:1030C000881F991F1A9469F760957095809590955F
:1030D0009B01AC01BD01CF010895052E97FB1EF4A5
:1030E00000940E94841857FD07D00E944B1807FCDB
:1030F00003D04EF40C94841850954095309521954A
:103100003F4F4F4F5F4F0895909580957095619513
:103110007F4F8F4F9F4F08952F923F924F925F9214
:103120006F927F928F929F92AF92BF92CF92DF92D7
:10313000EF92FF920F931F93CF93DF93CDB7DEB73C
:10314000CA1BDB0B0FB6F894DEBF0FBECDBF1994C0
:103150002A88398848885F846E847D848C849B8427
:10316000AA84B984C884DF80EE80FD800C811B8135
:10317000AA81B981CE0FD11D0FB6F894DEBF0FBE64
:10318000CDBFED010895EE0FFF1F0590F491E02DE6
:1031900019940E94EC18A59F900DB49F900DA49FC8
:1031A000800D911D11240895AA1BBB1B51E107C07E
:1031B000AA1FBB1FA617B70710F0A61BB70B881FC7
:1031C000991F5A95A9F780959095BC01CD01089556
:1031D0000790F691E02D1994A29FB001B39FC00112
:1031E000A39F700D811D1124911DB29F700D811D33
:1031F0001124911D0895FB01DC0102C001900D9284
:0C32000041505040D8F70895F894FFCFDB
:10320C00010000009812FC08981228000D0007001D
:10321C000000EE0B80007374645F6D7367732F5442
:10322C00696D650063643731363663373463353521
:10323C00326333313166626363326665356137629E
:10324C006332383900726F7373657269616C5F6DCC
:10325C007367732F546F706963496E666F003061CA
:10326C0064353166383866633434383932663863DD
:10327C0031303638343037373634363030350072FA
:10328C006F7373657269616C5F6D7367732F4C6FCD
:10329C00670031316162643733316332353933332E
:1032AC0032363163643631383362643132643632EB
:1032BC0039350039663065393862646136353938EC
:1032CC003139383664646635336166613761343060
:1032DC00653439007374645F6D7367732F466C6F5C
:1032EC006174333200373366636266343662343964
:1032FC00313931653637323930386535303834321A
:10330C006138336434004D65737361676520667290
:10331C006F6D206465766963652064726F7070658B
:10332C00643A206D657373616765206C61726765C3
:10333C0072207468616E206275666665722E007408
:10334C0068726F74746C65007374656572696E670E
:10335C005F616E676C6500726F7373657269616C27
:10336C005F6D7367732F52657175657374506172FD
:10337C00616D0000000000F20114025A025D0200AF
:10338C00000000CF03600226032903000000004D5B
:10339C00042C03700373030000000079041B0576F2
:1033AC00037903000000007C039003A603A903002B
:1033BC00000000D7066709CA0300000000AC03C078
:1033CC0003C403C703000000003F0F3913E50E12BE
:0633DC000FF70E340F0094
:00000001FF
